{
  "_format": "hh-sol-artifact-1",
  "contractName": "DiamondVipNft",
  "sourceName": "contracts/DiamondVipNft.sol",
  "abi": [
    {
      "inputs": [
        {
          "internalType": "address",
          "name": "initialOwner",
          "type": "address"
        },
        {
          "internalType": "address",
          "name": "_chessToken",
          "type": "address"
        }
      ],
      "stateMutability": "nonpayable",
      "type": "constructor"
    },
    {
      "inputs": [],
      "name": "ERC721EnumerableForbiddenBatchMint",
      "type": "error"
    },
    {
      "inputs": [
        {
          "internalType": "address",
          "name": "sender",
          "type": "address"
        },
        {
          "internalType": "uint256",
          "name": "tokenId",
          "type": "uint256"
        },
        {
          "internalType": "address",
          "name": "owner",
          "type": "address"
        }
      ],
      "name": "ERC721IncorrectOwner",
      "type": "error"
    },
    {
      "inputs": [
        {
          "internalType": "address",
          "name": "operator",
          "type": "address"
        },
        {
          "internalType": "uint256",
          "name": "tokenId",
          "type": "uint256"
        }
      ],
      "name": "ERC721InsufficientApproval",
      "type": "error"
    },
    {
      "inputs": [
        {
          "internalType": "address",
          "name": "approver",
          "type": "address"
        }
      ],
      "name": "ERC721InvalidApprover",
      "type": "error"
    },
    {
      "inputs": [
        {
          "internalType": "address",
          "name": "operator",
          "type": "address"
        }
      ],
      "name": "ERC721InvalidOperator",
      "type": "error"
    },
    {
      "inputs": [
        {
          "internalType": "address",
          "name": "owner",
          "type": "address"
        }
      ],
      "name": "ERC721InvalidOwner",
      "type": "error"
    },
    {
      "inputs": [
        {
          "internalType": "address",
          "name": "receiver",
          "type": "address"
        }
      ],
      "name": "ERC721InvalidReceiver",
      "type": "error"
    },
    {
      "inputs": [
        {
          "internalType": "address",
          "name": "sender",
          "type": "address"
        }
      ],
      "name": "ERC721InvalidSender",
      "type": "error"
    },
    {
      "inputs": [
        {
          "internalType": "uint256",
          "name": "tokenId",
          "type": "uint256"
        }
      ],
      "name": "ERC721NonexistentToken",
      "type": "error"
    },
    {
      "inputs": [
        {
          "internalType": "address",
          "name": "owner",
          "type": "address"
        },
        {
          "internalType": "uint256",
          "name": "index",
          "type": "uint256"
        }
      ],
      "name": "ERC721OutOfBoundsIndex",
      "type": "error"
    },
    {
      "inputs": [
        {
          "internalType": "address",
          "name": "owner",
          "type": "address"
        }
      ],
      "name": "OwnableInvalidOwner",
      "type": "error"
    },
    {
      "inputs": [
        {
          "internalType": "address",
          "name": "account",
          "type": "address"
        }
      ],
      "name": "OwnableUnauthorizedAccount",
      "type": "error"
    },
    {
      "anonymous": false,
      "inputs": [
        {
          "indexed": true,
          "internalType": "address",
          "name": "owner",
          "type": "address"
        },
        {
          "indexed": true,
          "internalType": "address",
          "name": "approved",
          "type": "address"
        },
        {
          "indexed": true,
          "internalType": "uint256",
          "name": "tokenId",
          "type": "uint256"
        }
      ],
      "name": "Approval",
      "type": "event"
    },
    {
      "anonymous": false,
      "inputs": [
        {
          "indexed": true,
          "internalType": "address",
          "name": "owner",
          "type": "address"
        },
        {
          "indexed": true,
          "internalType": "address",
          "name": "operator",
          "type": "address"
        },
        {
          "indexed": false,
          "internalType": "bool",
          "name": "approved",
          "type": "bool"
        }
      ],
      "name": "ApprovalForAll",
      "type": "event"
    },
    {
      "anonymous": false,
      "inputs": [
        {
          "indexed": false,
          "internalType": "uint256",
          "name": "_fromTokenId",
          "type": "uint256"
        },
        {
          "indexed": false,
          "internalType": "uint256",
          "name": "_toTokenId",
          "type": "uint256"
        }
      ],
      "name": "BatchMetadataUpdate",
      "type": "event"
    },
    {
      "anonymous": false,
      "inputs": [
        {
          "indexed": false,
          "internalType": "uint256",
          "name": "_tokenId",
          "type": "uint256"
        }
      ],
      "name": "MetadataUpdate",
      "type": "event"
    },
    {
      "anonymous": false,
      "inputs": [
        {
          "indexed": true,
          "internalType": "address",
          "name": "user",
          "type": "address"
        },
        {
          "indexed": false,
          "internalType": "uint256",
          "name": "tokenId",
          "type": "uint256"
        },
        {
          "indexed": false,
          "internalType": "uint256",
          "name": "price",
          "type": "uint256"
        }
      ],
      "name": "Minted",
      "type": "event"
    },
    {
      "anonymous": false,
      "inputs": [
        {
          "indexed": true,
          "internalType": "address",
          "name": "previousOwner",
          "type": "address"
        },
        {
          "indexed": true,
          "internalType": "address",
          "name": "newOwner",
          "type": "address"
        }
      ],
      "name": "OwnershipTransferred",
      "type": "event"
    },
    {
      "anonymous": false,
      "inputs": [
        {
          "indexed": true,
          "internalType": "address",
          "name": "from",
          "type": "address"
        },
        {
          "indexed": true,
          "internalType": "address",
          "name": "to",
          "type": "address"
        },
        {
          "indexed": true,
          "internalType": "uint256",
          "name": "tokenId",
          "type": "uint256"
        }
      ],
      "name": "Transfer",
      "type": "event"
    },
    {
      "inputs": [],
      "name": "PRESALE_MINT_PRICE",
      "outputs": [
        {
          "internalType": "uint256",
          "name": "",
          "type": "uint256"
        }
      ],
      "stateMutability": "view",
      "type": "function"
    },
    {
      "inputs": [],
      "name": "PUBLIC_MINT_PRICE",
      "outputs": [
        {
          "internalType": "uint256",
          "name": "",
          "type": "uint256"
        }
      ],
      "stateMutability": "view",
      "type": "function"
    },
    {
      "inputs": [
        {
          "internalType": "address",
          "name": "to",
          "type": "address"
        },
        {
          "internalType": "uint256",
          "name": "tokenId",
          "type": "uint256"
        }
      ],
      "name": "approve",
      "outputs": [],
      "stateMutability": "nonpayable",
      "type": "function"
    },
    {
      "inputs": [
        {
          "internalType": "address",
          "name": "owner",
          "type": "address"
        }
      ],
      "name": "balanceOf",
      "outputs": [
        {
          "internalType": "uint256",
          "name": "",
          "type": "uint256"
        }
      ],
      "stateMutability": "view",
      "type": "function"
    },
    {
      "inputs": [],
      "name": "chessToken",
      "outputs": [
        {
          "internalType": "contract IERC20",
          "name": "",
          "type": "address"
        }
      ],
      "stateMutability": "view",
      "type": "function"
    },
    {
      "inputs": [
        {
          "internalType": "uint256",
          "name": "tokenId",
          "type": "uint256"
        }
      ],
      "name": "getApproved",
      "outputs": [
        {
          "internalType": "address",
          "name": "",
          "type": "address"
        }
      ],
      "stateMutability": "view",
      "type": "function"
    },
    {
      "inputs": [
        {
          "internalType": "address",
          "name": "owner",
          "type": "address"
        },
        {
          "internalType": "address",
          "name": "operator",
          "type": "address"
        }
      ],
      "name": "isApprovedForAll",
      "outputs": [
        {
          "internalType": "bool",
          "name": "",
          "type": "bool"
        }
      ],
      "stateMutability": "view",
      "type": "function"
    },
    {
      "inputs": [],
      "name": "mint",
      "outputs": [],
      "stateMutability": "nonpayable",
      "type": "function"
    },
    {
      "inputs": [],
      "name": "name",
      "outputs": [
        {
          "internalType": "string",
          "name": "",
          "type": "string"
        }
      ],
      "stateMutability": "view",
      "type": "function"
    },
    {
      "inputs": [],
      "name": "owner",
      "outputs": [
        {
          "internalType": "address",
          "name": "",
          "type": "address"
        }
      ],
      "stateMutability": "view",
      "type": "function"
    },
    {
      "inputs": [
        {
          "internalType": "uint256",
          "name": "tokenId",
          "type": "uint256"
        }
      ],
      "name": "ownerOf",
      "outputs": [
        {
          "internalType": "address",
          "name": "",
          "type": "address"
        }
      ],
      "stateMutability": "view",
      "type": "function"
    },
    {
      "inputs": [],
      "name": "presaleActive",
      "outputs": [
        {
          "internalType": "bool",
          "name": "",
          "type": "bool"
        }
      ],
      "stateMutability": "view",
      "type": "function"
    },
    {
      "inputs": [],
      "name": "renounceOwnership",
      "outputs": [],
      "stateMutability": "nonpayable",
      "type": "function"
    },
    {
      "inputs": [
        {
          "internalType": "address",
          "name": "to",
          "type": "address"
        }
      ],
      "name": "rewardMint",
      "outputs": [],
      "stateMutability": "nonpayable",
      "type": "function"
    },
    {
      "inputs": [
        {
          "internalType": "address",
          "name": "from",
          "type": "address"
        },
        {
          "internalType": "address",
          "name": "to",
          "type": "address"
        },
        {
          "internalType": "uint256",
          "name": "tokenId",
          "type": "uint256"
        }
      ],
      "name": "safeTransferFrom",
      "outputs": [],
      "stateMutability": "nonpayable",
      "type": "function"
    },
    {
      "inputs": [
        {
          "internalType": "address",
          "name": "from",
          "type": "address"
        },
        {
          "internalType": "address",
          "name": "to",
          "type": "address"
        },
        {
          "internalType": "uint256",
          "name": "tokenId",
          "type": "uint256"
        },
        {
          "internalType": "bytes",
          "name": "data",
          "type": "bytes"
        }
      ],
      "name": "safeTransferFrom",
      "outputs": [],
      "stateMutability": "nonpayable",
      "type": "function"
    },
    {
      "inputs": [
        {
          "internalType": "address",
          "name": "operator",
          "type": "address"
        },
        {
          "internalType": "bool",
          "name": "approved",
          "type": "bool"
        }
      ],
      "name": "setApprovalForAll",
      "outputs": [],
      "stateMutability": "nonpayable",
      "type": "function"
    },
    {
      "inputs": [
        {
          "internalType": "string",
          "name": "baseURI",
          "type": "string"
        }
      ],
      "name": "setBaseURI",
      "outputs": [],
      "stateMutability": "nonpayable",
      "type": "function"
    },
    {
      "inputs": [
        {
          "internalType": "bool",
          "name": "active",
          "type": "bool"
        }
      ],
      "name": "setPresaleStatus",
      "outputs": [],
      "stateMutability": "nonpayable",
      "type": "function"
    },
    {
      "inputs": [
        {
          "internalType": "bytes4",
          "name": "interfaceId",
          "type": "bytes4"
        }
      ],
      "name": "supportsInterface",
      "outputs": [
        {
          "internalType": "bool",
          "name": "",
          "type": "bool"
        }
      ],
      "stateMutability": "view",
      "type": "function"
    },
    {
      "inputs": [],
      "name": "symbol",
      "outputs": [
        {
          "internalType": "string",
          "name": "",
          "type": "string"
        }
      ],
      "stateMutability": "view",
      "type": "function"
    },
    {
      "inputs": [
        {
          "internalType": "uint256",
          "name": "index",
          "type": "uint256"
        }
      ],
      "name": "tokenByIndex",
      "outputs": [
        {
          "internalType": "uint256",
          "name": "",
          "type": "uint256"
        }
      ],
      "stateMutability": "view",
      "type": "function"
    },
    {
      "inputs": [
        {
          "internalType": "address",
          "name": "owner",
          "type": "address"
        },
        {
          "internalType": "uint256",
          "name": "index",
          "type": "uint256"
        }
      ],
      "name": "tokenOfOwnerByIndex",
      "outputs": [
        {
          "internalType": "uint256",
          "name": "",
          "type": "uint256"
        }
      ],
      "stateMutability": "view",
      "type": "function"
    },
    {
      "inputs": [
        {
          "internalType": "uint256",
          "name": "tokenId",
          "type": "uint256"
        }
      ],
      "name": "tokenURI",
      "outputs": [
        {
          "internalType": "string",
          "name": "",
          "type": "string"
        }
      ],
      "stateMutability": "view",
      "type": "function"
    },
    {
      "inputs": [],
      "name": "totalSupply",
      "outputs": [
        {
          "internalType": "uint256",
          "name": "",
          "type": "uint256"
        }
      ],
      "stateMutability": "view",
      "type": "function"
    },
    {
      "inputs": [
        {
          "internalType": "address",
          "name": "from",
          "type": "address"
        },
        {
          "internalType": "address",
          "name": "to",
          "type": "address"
        },
        {
          "internalType": "uint256",
          "name": "tokenId",
          "type": "uint256"
        }
      ],
      "name": "transferFrom",
      "outputs": [],
      "stateMutability": "nonpayable",
      "type": "function"
    },
    {
      "inputs": [
        {
          "internalType": "address",
          "name": "newOwner",
          "type": "address"
        }
      ],
      "name": "transferOwnership",
      "outputs": [],
      "stateMutability": "nonpayable",
      "type": "function"
    }
  ],
  "bytecode": "0x60a06040526001600d60006101000a81548160ff0219169083151502179055503480156200002c57600080fd5b50604051620039b5380380620039b58339818101604052810190620000529190620002d8565b816040518060400160405280600b81526020017f4469616d6f6e64205649500000000000000000000000000000000000000000008152506040518060400160405280600481526020017f44564950000000000000000000000000000000000000000000000000000000008152508160009081620000d0919062000599565b508060019081620000e2919062000599565b505050600073ffffffffffffffffffffffffffffffffffffffff168173ffffffffffffffffffffffffffffffffffffffff16036200015a5760006040517f1e4fbdf700000000000000000000000000000000000000000000000000000000815260040162000151919062000691565b60405180910390fd5b6200016b81620001a860201b60201c565b508073ffffffffffffffffffffffffffffffffffffffff1660808173ffffffffffffffffffffffffffffffffffffffff16815250505050620006ae565b6000600b60009054906101000a900473ffffffffffffffffffffffffffffffffffffffff16905081600b60006101000a81548173ffffffffffffffffffffffffffffffffffffffff021916908373ffffffffffffffffffffffffffffffffffffffff1602179055508173ffffffffffffffffffffffffffffffffffffffff168173ffffffffffffffffffffffffffffffffffffffff167f8be0079c531659141344cd1fd0a4f28419497f9722a3daafe3b4186f6b6457e060405160405180910390a35050565b600080fd5b600073ffffffffffffffffffffffffffffffffffffffff82169050919050565b6000620002a08262000273565b9050919050565b620002b28162000293565b8114620002be57600080fd5b50565b600081519050620002d281620002a7565b92915050565b60008060408385031215620002f257620002f16200026e565b5b60006200030285828601620002c1565b92505060206200031585828601620002c1565b9150509250929050565b600081519050919050565b7f4e487b7100000000000000000000000000000000000000000000000000000000600052604160045260246000fd5b7f4e487b7100000000000000000000000000000000000000000000000000000000600052602260045260246000fd5b60006002820490506001821680620003a157607f821691505b602082108103620003b757620003b662000359565b5b50919050565b60008190508160005260206000209050919050565b60006020601f8301049050919050565b600082821b905092915050565b600060088302620004217fffffffffffffffffffffffffffffffffffffffffffffffffffffffffffffffff82620003e2565b6200042d8683620003e2565b95508019841693508086168417925050509392505050565b6000819050919050565b6000819050919050565b60006200047a620004746200046e8462000445565b6200044f565b62000445565b9050919050565b6000819050919050565b620004968362000459565b620004ae620004a58262000481565b848454620003ef565b825550505050565b600090565b620004c5620004b6565b620004d28184846200048b565b505050565b5b81811015620004fa57620004ee600082620004bb565b600181019050620004d8565b5050565b601f82111562000549576200051381620003bd565b6200051e84620003d2565b810160208510156200052e578190505b620005466200053d85620003d2565b830182620004d7565b50505b505050565b600082821c905092915050565b60006200056e600019846008026200054e565b1980831691505092915050565b60006200058983836200055b565b9150826002028217905092915050565b620005a4826200031f565b67ffffffffffffffff811115620005c057620005bf6200032a565b5b620005cc825462000388565b620005d9828285620004fe565b600060209050601f831160018114620006115760008415620005fc578287015190505b6200060885826200057b565b86555062000678565b601f1984166200062186620003bd565b60005b828110156200064b5784890151825560018201915060208501945060208101905062000624565b868310156200066b578489015162000667601f8916826200055b565b8355505b6001600288020188555050505b505050505050565b6200068b8162000293565b82525050565b6000602082019050620006a8600083018462000680565b92915050565b6080516132e4620006d16000396000818161063c0152610ddf01526132e46000f3fe608060405234801561001057600080fd5b50600436106101a95760003560e01c806355f804b3116100f957806395d89b4111610097578063c87b56dd11610071578063c87b56dd14610494578063e985e9c5146104c4578063f2fde38b146104f4578063fd36b43514610510576101a9565b806395d89b411461043e578063a22cb4651461045c578063b88d4fde14610478576101a9565b806370a08231116100d357806370a08231146103ca578063715018a6146103fa5780638895283f146104045780638da5cb5b14610420576101a9565b806355f804b3146103605780636352211e1461037c5780636bde2627146103ac576101a9565b806323b872dd1161016657806331ce992f1161014057806331ce992f146102da57806342842e0e146102f65780634f6ccce71461031257806353135ca014610342576101a9565b806323b872dd146102705780632a234e571461028c5780632f745c59146102aa576101a9565b806301ffc9a7146101ae57806306fdde03146101de578063081812fc146101fc578063095ea7b31461022c5780631249c58b1461024857806318160ddd14610252575b600080fd5b6101c860048036038101906101c391906124ae565b61052e565b6040516101d591906124f6565b60405180910390f35b6101e6610540565b6040516101f391906125a1565b60405180910390f35b610216600480360381019061021191906125f9565b6105d2565b6040516102239190612667565b60405180910390f35b610246600480360381019061024191906126ae565b6105ee565b005b610250610604565b005b61025a610799565b60405161026791906126fd565b60405180910390f35b61028a60048036038101906102859190612718565b6107a6565b005b6102946108a8565b6040516102a191906126fd565b60405180910390f35b6102c460048036038101906102bf91906126ae565b6108b7565b6040516102d191906126fd565b60405180910390f35b6102f460048036038101906102ef919061276b565b610960565b005b610310600480360381019061030b9190612718565b6109e2565b005b61032c600480360381019061032791906125f9565b610a02565b60405161033991906126fd565b60405180910390f35b61034a610a78565b60405161035791906124f6565b60405180910390f35b61037a600480360381019061037591906128cd565b610a8b565b005b610396600480360381019061039191906125f9565b610aa6565b6040516103a39190612667565b60405180910390f35b6103b4610ab8565b6040516103c191906126fd565b60405180910390f35b6103e460048036038101906103df919061276b565b610ac7565b6040516103f191906126fd565b60405180910390f35b610402610b81565b005b61041e60048036038101906104199190612942565b610b95565b005b610428610bba565b6040516104359190612667565b60405180910390f35b610446610be4565b60405161045391906125a1565b60405180910390f35b6104766004803603810190610471919061296f565b610c76565b005b610492600480360381019061048d9190612a50565b610c8c565b005b6104ae60048036038101906104a991906125f9565b610cb1565b6040516104bb91906125a1565b60405180910390f35b6104de60048036038101906104d99190612ad3565b610cc3565b6040516104eb91906124f6565b60405180910390f35b61050e6004803603810190610509919061276b565b610d57565b005b610518610ddd565b6040516105259190612b72565b60405180910390f35b600061053982610e01565b9050919050565b60606000805461054f90612bbc565b80601f016020809104026020016040519081016040528092919081815260200182805461057b90612bbc565b80156105c85780601f1061059d576101008083540402835291602001916105c8565b820191906000526020600020905b8154815290600101906020018083116105ab57829003601f168201915b5050505050905090565b60006105dd82610e62565b506105e782610eea565b9050919050565b61060082826105fb610f27565b610f2f565b5050565b6000600d60009054906101000a900460ff1661062b576a084595161401484a000000610638565b6a0422ca8b0a00a4250000005b90507f000000000000000000000000000000000000000000000000000000000000000073ffffffffffffffffffffffffffffffffffffffff166323b872dd3361067f610bba565b846040518463ffffffff1660e01b815260040161069e93929190612bed565b6020604051808303816000875af11580156106bd573d6000803e3d6000fd5b505050506040513d601f19601f820116820180604052508101906106e19190612c39565b610720576040517f08c379a000000000000000000000000000000000000000000000000000000000815260040161071790612cb2565b60405180910390fd5b6000600c600081548092919061073590612d01565b9190505590506107453382610f41565b3373ffffffffffffffffffffffffffffffffffffffff167f25b428dfde728ccfaddad7e29e4ac23c24ed7fd1a6e3e3f91894a9a073f5dfff828460405161078d929190612d49565b60405180910390a25050565b6000600880549050905090565b600073ffffffffffffffffffffffffffffffffffffffff168273ffffffffffffffffffffffffffffffffffffffff16036108185760006040517f64a0ae9200000000000000000000000000000000000000000000000000000000815260040161080f9190612667565b60405180910390fd5b600061082c8383610827610f27565b610f5f565b90508373ffffffffffffffffffffffffffffffffffffffff168173ffffffffffffffffffffffffffffffffffffffff16146108a2578382826040517f64283d7b00000000000000000000000000000000000000000000000000000000815260040161089993929190612d72565b60405180910390fd5b50505050565b6a0422ca8b0a00a42500000081565b60006108c283610ac7565b82106109075782826040517fa57d13dc0000000000000000000000000000000000000000000000000000000081526004016108fe929190612da9565b60405180910390fd5b600660008473ffffffffffffffffffffffffffffffffffffffff1673ffffffffffffffffffffffffffffffffffffffff168152602001908152602001600020600083815260200190815260200160002054905092915050565b610968610f75565b6000600c600081548092919061097d90612d01565b91905055905061098d8282610f41565b8173ffffffffffffffffffffffffffffffffffffffff167f25b428dfde728ccfaddad7e29e4ac23c24ed7fd1a6e3e3f91894a9a073f5dfff8260006040516109d6929190612e0d565b60405180910390a25050565b6109fd83838360405180602001604052806000815250610c8c565b505050565b6000610a0c610799565b8210610a52576000826040517fa57d13dc000000000000000000000000000000000000000000000000000000008152600401610a49929190612da9565b60405180910390fd5b60088281548110610a6657610a65612e36565b5b90600052602060002001549050919050565b600d60009054906101000a900460ff1681565b610a93610f75565b80600e9081610aa29190613007565b5050565b6000610ab182610e62565b9050919050565b6a084595161401484a00000081565b60008073ffffffffffffffffffffffffffffffffffffffff168273ffffffffffffffffffffffffffffffffffffffff1603610b3a5760006040517f89c62b64000000000000000000000000000000000000000000000000000000008152600401610b319190612667565b60405180910390fd5b600360008373ffffffffffffffffffffffffffffffffffffffff1673ffffffffffffffffffffffffffffffffffffffff168152602001908152602001600020549050919050565b610b89610f75565b610b936000610ffc565b565b610b9d610f75565b80600d60006101000a81548160ff02191690831515021790555050565b6000600b60009054906101000a900473ffffffffffffffffffffffffffffffffffffffff16905090565b606060018054610bf390612bbc565b80601f0160208091040260200160405190810160405280929190818152602001828054610c1f90612bbc565b8015610c6c5780601f10610c4157610100808354040283529160200191610c6c565b820191906000526020600020905b815481529060010190602001808311610c4f57829003601f168201915b5050505050905090565b610c88610c81610f27565b83836110c2565b5050565b610c978484846107a6565b610cab610ca2610f27565b85858585611231565b50505050565b6060610cbc826113e2565b9050919050565b6000600560008473ffffffffffffffffffffffffffffffffffffffff1673ffffffffffffffffffffffffffffffffffffffff16815260200190815260200160002060008373ffffffffffffffffffffffffffffffffffffffff1673ffffffffffffffffffffffffffffffffffffffff16815260200190815260200160002060009054906101000a900460ff16905092915050565b610d5f610f75565b600073ffffffffffffffffffffffffffffffffffffffff168173ffffffffffffffffffffffffffffffffffffffff1603610dd15760006040517f1e4fbdf7000000000000000000000000000000000000000000000000000000008152600401610dc89190612667565b60405180910390fd5b610dda81610ffc565b50565b7f000000000000000000000000000000000000000000000000000000000000000081565b6000634906490660e01b7bffffffffffffffffffffffffffffffffffffffffffffffffffffffff1916827bffffffffffffffffffffffffffffffffffffffffffffffffffffffff19161480610e5b5750610e5a826114f5565b5b9050919050565b600080610e6e8361156f565b9050600073ffffffffffffffffffffffffffffffffffffffff168173ffffffffffffffffffffffffffffffffffffffff1603610ee157826040517f7e273289000000000000000000000000000000000000000000000000000000008152600401610ed891906126fd565b60405180910390fd5b80915050919050565b60006004600083815260200190815260200160002060009054906101000a900473ffffffffffffffffffffffffffffffffffffffff169050919050565b600033905090565b610f3c83838360016115ac565b505050565b610f5b828260405180602001604052806000815250611771565b5050565b6000610f6c848484611795565b90509392505050565b610f7d610f27565b73ffffffffffffffffffffffffffffffffffffffff16610f9b610bba565b73ffffffffffffffffffffffffffffffffffffffff1614610ffa57610fbe610f27565b6040517f118cdaa7000000000000000000000000000000000000000000000000000000008152600401610ff19190612667565b60405180910390fd5b565b6000600b60009054906101000a900473ffffffffffffffffffffffffffffffffffffffff16905081600b60006101000a81548173ffffffffffffffffffffffffffffffffffffffff021916908373ffffffffffffffffffffffffffffffffffffffff1602179055508173ffffffffffffffffffffffffffffffffffffffff168173ffffffffffffffffffffffffffffffffffffffff167f8be0079c531659141344cd1fd0a4f28419497f9722a3daafe3b4186f6b6457e060405160405180910390a35050565b600073ffffffffffffffffffffffffffffffffffffffff168273ffffffffffffffffffffffffffffffffffffffff160361113357816040517f5b08ba1800000000000000000000000000000000000000000000000000000000815260040161112a9190612667565b60405180910390fd5b80600560008573ffffffffffffffffffffffffffffffffffffffff1673ffffffffffffffffffffffffffffffffffffffff16815260200190815260200160002060008473ffffffffffffffffffffffffffffffffffffffff1673ffffffffffffffffffffffffffffffffffffffff16815260200190815260200160002060006101000a81548160ff0219169083151502179055508173ffffffffffffffffffffffffffffffffffffffff168373ffffffffffffffffffffffffffffffffffffffff167f17307eab39ab6107e8899845ad3d59bd9653f200f220920489ca2b5937696c318360405161122491906124f6565b60405180910390a3505050565b60008373ffffffffffffffffffffffffffffffffffffffff163b11156113db578273ffffffffffffffffffffffffffffffffffffffff1663150b7a02868685856040518563ffffffff1660e01b8152600401611290949392919061312e565b6020604051808303816000875af19250505080156112cc57506040513d601f19601f820116820180604052508101906112c9919061318f565b60015b611350573d80600081146112fc576040519150601f19603f3d011682016040523d82523d6000602084013e611301565b606091505b50600081510361134857836040517f64a0ae9200000000000000000000000000000000000000000000000000000000815260040161133f9190612667565b60405180910390fd5b805160208201fd5b63150b7a0260e01b7bffffffffffffffffffffffffffffffffffffffffffffffffffffffff1916817bffffffffffffffffffffffffffffffffffffffffffffffffffffffff1916146113d957836040517f64a0ae920000000000000000000000000000000000000000000000000000000081526004016113d09190612667565b60405180910390fd5b505b5050505050565b60606113ed82610e62565b506000600a6000848152602001908152602001600020805461140e90612bbc565b80601f016020809104026020016040519081016040528092919081815260200182805461143a90612bbc565b80156114875780601f1061145c57610100808354040283529160200191611487565b820191906000526020600020905b81548152906001019060200180831161146a57829003601f168201915b5050505050905060006114986118b2565b905060008151036114ad5781925050506114f0565b6000825111156114e25780826040516020016114ca9291906131f8565b604051602081830303815290604052925050506114f0565b6114eb84611944565b925050505b919050565b60007f780e9d63000000000000000000000000000000000000000000000000000000007bffffffffffffffffffffffffffffffffffffffffffffffffffffffff1916827bffffffffffffffffffffffffffffffffffffffffffffffffffffffff191614806115685750611567826119ad565b5b9050919050565b60006002600083815260200190815260200160002060009054906101000a900473ffffffffffffffffffffffffffffffffffffffff169050919050565b80806115e55750600073ffffffffffffffffffffffffffffffffffffffff168273ffffffffffffffffffffffffffffffffffffffff1614155b156117195760006115f584610e62565b9050600073ffffffffffffffffffffffffffffffffffffffff168373ffffffffffffffffffffffffffffffffffffffff161415801561166057508273ffffffffffffffffffffffffffffffffffffffff168173ffffffffffffffffffffffffffffffffffffffff1614155b801561167357506116718184610cc3565b155b156116b557826040517fa9fbf51f0000000000000000000000000000000000000000000000000000000081526004016116ac9190612667565b60405180910390fd5b811561171757838573ffffffffffffffffffffffffffffffffffffffff168273ffffffffffffffffffffffffffffffffffffffff167f8c5be1e5ebec7d5bd14f71427d1e84f3dd0314c0f7b2291e5b200ac8c7c3b92560405160405180910390a45b505b836004600085815260200190815260200160002060006101000a81548173ffffffffffffffffffffffffffffffffffffffff021916908373ffffffffffffffffffffffffffffffffffffffff16021790555050505050565b61177b8383611a8f565b611790611786610f27565b6000858585611231565b505050565b6000806117a3858585611b88565b9050600073ffffffffffffffffffffffffffffffffffffffff168173ffffffffffffffffffffffffffffffffffffffff16036117e7576117e284611da2565b611826565b8473ffffffffffffffffffffffffffffffffffffffff168173ffffffffffffffffffffffffffffffffffffffff1614611825576118248185611deb565b5b5b600073ffffffffffffffffffffffffffffffffffffffff168573ffffffffffffffffffffffffffffffffffffffff16036118685761186384611ed6565b6118a7565b8473ffffffffffffffffffffffffffffffffffffffff168173ffffffffffffffffffffffffffffffffffffffff16146118a6576118a58585611fa7565b5b5b809150509392505050565b6060600e80546118c190612bbc565b80601f01602080910402602001604051908101604052809291908181526020018280546118ed90612bbc565b801561193a5780601f1061190f5761010080835404028352916020019161193a565b820191906000526020600020905b81548152906001019060200180831161191d57829003601f168201915b5050505050905090565b606061194f82610e62565b50600061195a6118b2565b9050600081511161197a57604051806020016040528060008152506119a5565b8061198484612032565b6040516020016119959291906131f8565b6040516020818303038152906040525b915050919050565b60007f80ac58cd000000000000000000000000000000000000000000000000000000007bffffffffffffffffffffffffffffffffffffffffffffffffffffffff1916827bffffffffffffffffffffffffffffffffffffffffffffffffffffffff19161480611a7857507f5b5e139f000000000000000000000000000000000000000000000000000000007bffffffffffffffffffffffffffffffffffffffffffffffffffffffff1916827bffffffffffffffffffffffffffffffffffffffffffffffffffffffff1916145b80611a885750611a8782612100565b5b9050919050565b600073ffffffffffffffffffffffffffffffffffffffff168273ffffffffffffffffffffffffffffffffffffffff1603611b015760006040517f64a0ae92000000000000000000000000000000000000000000000000000000008152600401611af89190612667565b60405180910390fd5b6000611b0f83836000610f5f565b9050600073ffffffffffffffffffffffffffffffffffffffff168173ffffffffffffffffffffffffffffffffffffffff1614611b835760006040517f73c6ac6e000000000000000000000000000000000000000000000000000000008152600401611b7a9190612667565b60405180910390fd5b505050565b600080611b948461156f565b9050600073ffffffffffffffffffffffffffffffffffffffff168373ffffffffffffffffffffffffffffffffffffffff1614611bd657611bd581848661216a565b5b600073ffffffffffffffffffffffffffffffffffffffff168173ffffffffffffffffffffffffffffffffffffffff1614611c6757611c186000856000806115ac565b6001600360008373ffffffffffffffffffffffffffffffffffffffff1673ffffffffffffffffffffffffffffffffffffffff168152602001908152602001600020600082825403925050819055505b600073ffffffffffffffffffffffffffffffffffffffff168573ffffffffffffffffffffffffffffffffffffffff1614611cea576001600360008773ffffffffffffffffffffffffffffffffffffffff1673ffffffffffffffffffffffffffffffffffffffff168152602001908152602001600020600082825401925050819055505b846002600086815260200190815260200160002060006101000a81548173ffffffffffffffffffffffffffffffffffffffff021916908373ffffffffffffffffffffffffffffffffffffffff160217905550838573ffffffffffffffffffffffffffffffffffffffff168273ffffffffffffffffffffffffffffffffffffffff167fddf252ad1be2c89b69c2b068fc378daa952ba7f163c4a11628f55a4df523b3ef60405160405180910390a4809150509392505050565b6008805490506009600083815260200190815260200160002081905550600881908060018154018082558091505060019003906000526020600020016000909190919091505550565b6000611df683610ac7565b90506000600760008481526020019081526020016000205490506000600660008673ffffffffffffffffffffffffffffffffffffffff1673ffffffffffffffffffffffffffffffffffffffff1681526020019081526020016000209050828214611ea25760008160008581526020019081526020016000205490508082600085815260200190815260200160002081905550826007600083815260200190815260200160002081905550505b6007600085815260200190815260200160002060009055806000848152602001908152602001600020600090555050505050565b60006001600880549050611eea919061321c565b9050600060096000848152602001908152602001600020549050600060088381548110611f1a57611f19612e36565b5b906000526020600020015490508060088381548110611f3c57611f3b612e36565b5b906000526020600020018190555081600960008381526020019081526020016000208190555060096000858152602001908152602001600020600090556008805480611f8b57611f8a613250565b5b6001900381819060005260206000200160009055905550505050565b60006001611fb484610ac7565b611fbe919061321c565b905081600660008573ffffffffffffffffffffffffffffffffffffffff1673ffffffffffffffffffffffffffffffffffffffff168152602001908152602001600020600083815260200190815260200160002081905550806007600084815260200190815260200160002081905550505050565b6060600060016120418461222e565b01905060008167ffffffffffffffff8111156120605761205f6127a2565b5b6040519080825280601f01601f1916602001820160405280156120925781602001600182028036833780820191505090505b509050600082602083010190505b6001156120f5578080600190039150507f3031323334353637383961626364656600000000000000000000000000000000600a86061a8153600a85816120e9576120e861327f565b5b049450600085036120a0575b819350505050919050565b60007f01ffc9a7000000000000000000000000000000000000000000000000000000007bffffffffffffffffffffffffffffffffffffffffffffffffffffffff1916827bffffffffffffffffffffffffffffffffffffffffffffffffffffffff1916149050919050565b612175838383612381565b61222957600073ffffffffffffffffffffffffffffffffffffffff168373ffffffffffffffffffffffffffffffffffffffff16036121ea57806040517f7e2732890000000000000000000000000000000000000000000000000000000081526004016121e191906126fd565b60405180910390fd5b81816040517f177e802f000000000000000000000000000000000000000000000000000000008152600401612220929190612da9565b60405180910390fd5b505050565b600080600090507a184f03e93ff9f4daa797ed6e38ed64bf6a1f010000000000000000831061228c577a184f03e93ff9f4daa797ed6e38ed64bf6a1f01000000000000000083816122825761228161327f565b5b0492506040810190505b6d04ee2d6d415b85acef810000000083106122c9576d04ee2d6d415b85acef810000000083816122bf576122be61327f565b5b0492506020810190505b662386f26fc1000083106122f857662386f26fc1000083816122ee576122ed61327f565b5b0492506010810190505b6305f5e1008310612321576305f5e10083816123175761231661327f565b5b0492506008810190505b612710831061234657612710838161233c5761233b61327f565b5b0492506004810190505b60648310612369576064838161235f5761235e61327f565b5b0492506002810190505b600a8310612378576001810190505b80915050919050565b60008073ffffffffffffffffffffffffffffffffffffffff168373ffffffffffffffffffffffffffffffffffffffff161415801561243957508273ffffffffffffffffffffffffffffffffffffffff168473ffffffffffffffffffffffffffffffffffffffff1614806123fa57506123f98484610cc3565b5b8061243857508273ffffffffffffffffffffffffffffffffffffffff1661242083610eea565b73ffffffffffffffffffffffffffffffffffffffff16145b5b90509392505050565b6000604051905090565b600080fd5b600080fd5b60007fffffffff0000000000000000000000000000000000000000000000000000000082169050919050565b61248b81612456565b811461249657600080fd5b50565b6000813590506124a881612482565b92915050565b6000602082840312156124c4576124c361244c565b5b60006124d284828501612499565b91505092915050565b60008115159050919050565b6124f0816124db565b82525050565b600060208201905061250b60008301846124e7565b92915050565b600081519050919050565b600082825260208201905092915050565b60005b8381101561254b578082015181840152602081019050612530565b60008484015250505050565b6000601f19601f8301169050919050565b600061257382612511565b61257d818561251c565b935061258d81856020860161252d565b61259681612557565b840191505092915050565b600060208201905081810360008301526125bb8184612568565b905092915050565b6000819050919050565b6125d6816125c3565b81146125e157600080fd5b50565b6000813590506125f3816125cd565b92915050565b60006020828403121561260f5761260e61244c565b5b600061261d848285016125e4565b91505092915050565b600073ffffffffffffffffffffffffffffffffffffffff82169050919050565b600061265182612626565b9050919050565b61266181612646565b82525050565b600060208201905061267c6000830184612658565b92915050565b61268b81612646565b811461269657600080fd5b50565b6000813590506126a881612682565b92915050565b600080604083850312156126c5576126c461244c565b5b60006126d385828601612699565b92505060206126e4858286016125e4565b9150509250929050565b6126f7816125c3565b82525050565b600060208201905061271260008301846126ee565b92915050565b6000806000606084860312156127315761273061244c565b5b600061273f86828701612699565b935050602061275086828701612699565b9250506040612761868287016125e4565b9150509250925092565b6000602082840312156127815761278061244c565b5b600061278f84828501612699565b91505092915050565b600080fd5b600080fd5b7f4e487b7100000000000000000000000000000000000000000000000000000000600052604160045260246000fd5b6127da82612557565b810181811067ffffffffffffffff821117156127f9576127f86127a2565b5b80604052505050565b600061280c612442565b905061281882826127d1565b919050565b600067ffffffffffffffff821115612838576128376127a2565b5b61284182612557565b9050602081019050919050565b82818337600083830152505050565b600061287061286b8461281d565b612802565b90508281526020810184848401111561288c5761288b61279d565b5b61289784828561284e565b509392505050565b600082601f8301126128b4576128b3612798565b5b81356128c484826020860161285d565b91505092915050565b6000602082840312156128e3576128e261244c565b5b600082013567ffffffffffffffff81111561290157612900612451565b5b61290d8482850161289f565b91505092915050565b61291f816124db565b811461292a57600080fd5b50565b60008135905061293c81612916565b92915050565b6000602082840312156129585761295761244c565b5b60006129668482850161292d565b91505092915050565b600080604083850312156129865761298561244c565b5b600061299485828601612699565b92505060206129a58582860161292d565b9150509250929050565b600067ffffffffffffffff8211156129ca576129c96127a2565b5b6129d382612557565b9050602081019050919050565b60006129f36129ee846129af565b612802565b905082815260208101848484011115612a0f57612a0e61279d565b5b612a1a84828561284e565b509392505050565b600082601f830112612a3757612a36612798565b5b8135612a478482602086016129e0565b91505092915050565b60008060008060808587031215612a6a57612a6961244c565b5b6000612a7887828801612699565b9450506020612a8987828801612699565b9350506040612a9a878288016125e4565b925050606085013567ffffffffffffffff811115612abb57612aba612451565b5b612ac787828801612a22565b91505092959194509250565b60008060408385031215612aea57612ae961244c565b5b6000612af885828601612699565b9250506020612b0985828601612699565b9150509250929050565b6000819050919050565b6000612b38612b33612b2e84612626565b612b13565b612626565b9050919050565b6000612b4a82612b1d565b9050919050565b6000612b5c82612b3f565b9050919050565b612b6c81612b51565b82525050565b6000602082019050612b876000830184612b63565b92915050565b7f4e487b7100000000000000000000000000000000000000000000000000000000600052602260045260246000fd5b60006002820490506001821680612bd457607f821691505b602082108103612be757612be6612b8d565b5b50919050565b6000606082019050612c026000830186612658565b612c0f6020830185612658565b612c1c60408301846126ee565b949350505050565b600081519050612c3381612916565b92915050565b600060208284031215612c4f57612c4e61244c565b5b6000612c5d84828501612c24565b91505092915050565b7f4348455353207472616e73666572206661696c65640000000000000000000000600082015250565b6000612c9c60158361251c565b9150612ca782612c66565b602082019050919050565b60006020820190508181036000830152612ccb81612c8f565b9050919050565b7f4e487b7100000000000000000000000000000000000000000000000000000000600052601160045260246000fd5b6000612d0c826125c3565b91507fffffffffffffffffffffffffffffffffffffffffffffffffffffffffffffffff8203612d3e57612d3d612cd2565b5b600182019050919050565b6000604082019050612d5e60008301856126ee565b612d6b60208301846126ee565b9392505050565b6000606082019050612d876000830186612658565b612d9460208301856126ee565b612da16040830184612658565b949350505050565b6000604082019050612dbe6000830185612658565b612dcb60208301846126ee565b9392505050565b6000819050919050565b6000612df7612df2612ded84612dd2565b612b13565b6125c3565b9050919050565b612e0781612ddc565b82525050565b6000604082019050612e2260008301856126ee565b612e2f6020830184612dfe565b9392505050565b7f4e487b7100000000000000000000000000000000000000000000000000000000600052603260045260246000fd5b60008190508160005260206000209050919050565b60006020601f8301049050919050565b600082821b905092915050565b600060088302612ec77fffffffffffffffffffffffffffffffffffffffffffffffffffffffffffffffff82612e8a565b612ed18683612e8a565b95508019841693508086168417925050509392505050565b6000612f04612eff612efa846125c3565b612b13565b6125c3565b9050919050565b6000819050919050565b612f1e83612ee9565b612f32612f2a82612f0b565b848454612e97565b825550505050565b600090565b612f47612f3a565b612f52818484612f15565b505050565b5b81811015612f7657612f6b600082612f3f565b600181019050612f58565b5050565b601f821115612fbb57612f8c81612e65565b612f9584612e7a565b81016020851015612fa4578190505b612fb8612fb085612e7a565b830182612f57565b50505b505050565b600082821c905092915050565b6000612fde60001984600802612fc0565b1980831691505092915050565b6000612ff78383612fcd565b9150826002028217905092915050565b61301082612511565b67ffffffffffffffff811115613029576130286127a2565b5b6130338254612bbc565b61303e828285612f7a565b600060209050601f831160018114613071576000841561305f578287015190505b6130698582612feb565b8655506130d1565b601f19841661307f86612e65565b60005b828110156130a757848901518255600182019150602085019450602081019050613082565b868310156130c457848901516130c0601f891682612fcd565b8355505b6001600288020188555050505b505050505050565b600081519050919050565b600082825260208201905092915050565b6000613100826130d9565b61310a81856130e4565b935061311a81856020860161252d565b61312381612557565b840191505092915050565b60006080820190506131436000830187612658565b6131506020830186612658565b61315d60408301856126ee565b818103606083015261316f81846130f5565b905095945050505050565b60008151905061318981612482565b92915050565b6000602082840312156131a5576131a461244c565b5b60006131b38482850161317a565b91505092915050565b600081905092915050565b60006131d282612511565b6131dc81856131bc565b93506131ec81856020860161252d565b80840191505092915050565b600061320482856131c7565b915061321082846131c7565b91508190509392505050565b6000613227826125c3565b9150613232836125c3565b925082820390508181111561324a57613249612cd2565b5b92915050565b7f4e487b7100000000000000000000000000000000000000000000000000000000600052603160045260246000fd5b7f4e487b7100000000000000000000000000000000000000000000000000000000600052601260045260246000fdfea264697066735822122085882d66465be5e7abca71623a4efc6f682c5d5dc88c2bc0ecf6adb86cdb336564736f6c63430008140033",
  "linkReferences": {},
  "deployedLinkReferences": {}
}